:020000040800F2
:1000000000070020D5020008A91D00087D1C00087B
:10001000A51D0008971B00085130000800000000D3
:10002000000000000000000000000000F9280008A7
:100030009B1B00080000000015270008E9290008A4
:10004000EF020008EF020008EF020008EF020008CC
:10005000EF020008EF020008EF020008EF020008BC
:10006000EF020008EF020008EF020008EF020008AC
:10007000EF020008EF020008EF020008EF0200089C
:10008000EF020008EF020008EF020008EF0200088C
:10009000EF020008EF020008EF020008EF0200087C
:1000A000252B0008792B00085D2B0008412B000848
:1000B000952B0008AD2B0008792C0008EF020008F2
:1000C000EF020008EF020008EF020008EF0200084C
:1000D000EF020008EF020008EF020008EF0200083C
:1000E000EF020008EF020008EF020008F12C000800
:1000F0003D2D00082D2D0008112D0008EF020008ED
:10010000EF020008EF020008952C0008EF0200083B
:10011000EF020008EF020008B92C0008D52C0008F7
:10012000EF020008EF020008EF020008EF020008EB
:10013000EF020008EF020008EF020008EF020008DB
:10014000EF020008EF020008EF020008EF020008CB
:10015000EF020008EF020008EF020008EF020008BB
:10016000EF020008EF020008EF020008EF020008AB
:10017000EF020008EF020008EF020008EF0200089B
:10018000EF020008EF02000800F002F800F092F819
:100190000AA090E8000C82448344AAF10107DA45E2
:1001A00001D100F087F8AFF2090EBAE80F0013F0A2
:1001B000010F18BFFB1A43F001031847F03000008D
:1001C00010310000103A24BF78C878C1FAD852071D
:1001D00024BF30C830C144BF04680C6070470000C1
:1001E0000023002400250026103A28BF78C1FBD840
:1001F000520728BF30C148BF0B6070476E2900F01E
:100200003D81702900F07F82662902F0CC87652944
:1002100002F0C987672902F0C687612902F0C58705
:1002200003681B0A28BF41F08001692900F0EA80B9
:10023000642900F0E780752900F0E4806F2900F060
:100240000C82782900F04B82E92900F0A781E4298B
:1002500000F0A481F52900F0A181EF2900F00982C6
:10026000F82900F04A820368DB0928BF41F08001C9
:10027000632900F04D87732900F05287E32900F0CD
:100280005D87F32900F06287002070471FB502F0F8
:1002900085FF00F0ADFF04000020002102F068FFA0
:1002A000401C60600020002102F04CFFE0601FBD98
:1002B00010B510BD00F06EFF1146FFF7E7FF02F02A
:1002C000E9FE01F04BF803B4FFF7F2FF03BC01F0C5
:1002D00093F800000948804709480047FEE7FEE719
:1002E000FEE7FEE7FEE7FEE7FEE7FEE7FEE7FEE7E6
:1002F00004480549054A064B70470000F1290008EB
:1003000089010008000100200007002000030020F0
:10031000000300201CB50C46064B7B446946009048
:10032000204600F0C4F804460020694600F0D2F8E8
:1003300020461CBDB701000070477047704770B57C
:10034000044685690068C10601D5302600E02026F4
:10035000C00707D070BDD4E9012130469047206A1C
:10036000401C20626D1EF6D570BD70B504468569CF
:100370000078C00707D170BDD4E901212020904743
:10038000206A401C20626D1EF6D570BD09684A05C2
:1003900001D540B27047C905FCD500B27047096865
:1003A0004A0501D5C0B27047C905FCD580B2704777
:1003B00070B50C460546012A05D02878800600D580
:1003C000EA69002302E0012305E05B1C934202D2AC
:1003D000E05C0028F9D1A869E618C01AA861286A6B
:1003E000184428622846FFF7AAFF04E0D5E9012156
:1003F00014F8010B9047B442F8D32846FFF7B5FF35
:1004000070BD00002DE9F0410646002410687529F2
:10041000314616A510D0FFF7B9FF002802DA404296
:1004200013A507E031688A0701D512A502E0490744
:1004300004D511A5012401E0FFF7B1FF00210A2234
:1004400006F1240709E0B0FBF2FCB0FBF2F302FB7B
:100450001C00303078541846491C0028F3D123463C
:100460002A463046BDE8F04100F061BA00000000C5
:100470002D0000002B000000200000001168026821
:10048000006A530501D508700AE0D30501D508803C
:1004900006E0130603D5C217C1E9000200E00860B8
:1004A0000120704701694A1C02610878704700B555
:1004B0008FB0CDE901310021059105497944CDE99D
:1004C00003101146684600F029F90FB000BD000086
:1004D000E5FFFFFF0A6802F8010B0A6070470000A1
:1004E0002DE9FF5F15468A460446DFF8AC80F844E4
:1004F0000027D8E900103E46CDE9001010E03AF898
:1005000016106A4602A800F025FE411C07D021788B
:10051000890603D5E269391891420DD80744761C43
:100520002078800602D5E069B84205DDAE42E6DB00
:100530003AF816000028E2D1A069C01BA06120464D
:10054000FFF7FDFED8E90010CDE90010002017E00C
:100550003AF818106A4602A800F0FCFDB0F1FF3F1F
:1005600081460BD000250DF1080B05E0D4E90121EF
:100570001BF8050090476D1C4D45F7D308F10100AD
:10058000B0428046E4DB206A384420622046FFF710
:10059000ECFEBDE8FF9F0000BE2C00002DE9F041FD
:1005A0008046D21D22F007020025D2E90002F5297B
:1005B00015A614D0011E72F1000106DA0023D0EB5B
:1005C000030063EB020211A608E0D8F800108B07C5
:1005D00001D50FA602E0490701D50EA60125114657
:1005E000002408F1240704E000F05CF930323A55A9
:1005F000641C50EA0102F7D12B46324621464046A0
:10060000BDE8F04100F093B9000000002D000000AB
:100610002B0000002000000030B4002100F1240471
:1006200008E002F00705D208303542EA4372DB08E1
:100630006554491C52EA0305F3D10468002310A253
:10064000250707D5A40600D421B1C46901230DA252
:10065000641EC46130BC00F06AB910B5044621467E
:100660001068FFF79CFE02462046BDE810400023BC
:10067000D2E7D21D22F00701D1E90023CCE7000028
:100680000000000030000000F0B40D4601880905AC
:1006900002D5214C7C4402E01F4C7C440E340021E6
:1006A00000F1240608E002F00F071209E75D42EAB4
:1006B00003721B097754491C52EA0307F3D10278ED
:1006C0000023120704D5702D06D009B1022311347E
:1006D0002246F0BC00F02BB901231034F8E770B5C6
:1006E00004460D4621461068FFF759FE024629468A
:1006F0002046BDE870400023C6E7D21D22F0070364
:10070000D3E90023C0E70368126843F020030360C5
:100710000823C3610023B7E7202B00002DE9F05F19
:10072000894604464FF0000ADFF874B1FB44C0F874
:1007300020A02046E1688847002874D0252806D0EC
:10074000D4E901219047206A401C2062F1E700268D
:100750005F462046E16888472028054607DB312DA3
:1007600005D2781910F8200C08B10643F1E7B0075C
:1007700001D526F00406C4F81CA00027C4F818A070
:100780002A2D09D0284602F07EFC38B304EB8708F6
:10079000303DC8F8185019E059F8041B204604EB06
:1007A00087029161E1688847012F054618D1E06909
:1007B000002820DA26F020061DE0D8F8180000EB0B
:1007C000800005EB40003038C8F818002046E1688A
:1007D0008847054602F057FC0028EED1012F0AD0C9
:1007E0002E2D08D12046E16888477F1C0546022F40
:1007F00046F02006C4DBA069002803DA404246F038
:100800000106A061F00701D026F010066C2D0BD078
:10081000682D09D04C2D39D06A2D35D0742D35D0A6
:100820007A2D33D016E038E0E1682F46204688471D
:10083000B842054609D16C2F26D04FF48060E1689C
:10084000064320468847054604E06C2F1AD04FF433
:10085000807006430DB3A5F14100192802D8203558
:1008600046F400664A462946204626604E46FFF773
:10087000C5FC80B101280BD0F61D26F0070000F161
:10088000080956E74020E4E78020D8E70020D6E7B3
:1008900006F104094DE7284652E7206ABDE8F09FBB
:1008A000B02A000030B5B0F10A024FEA900E71F1A3
:1008B00000034EEA817EB0EB0E0061EB91014FEA3E
:1008C000101E4EEA017E10EB0E0041EB11114FEAB3
:1008D000102E4EEA016E10EB0E0041EB11214FEA93
:1008E000104E4EEA014E10EB0E0041EB1141401844
:1008F00041F100014FEAD00040EA41704FEAD101D6
:1009000010EB80054FEA810444EA907444EB010443
:100910006D1944EB0404521BA3414FF0000348BF80
:100920000A3200D530BD401C41F1000130BD2DE937
:10093000F0470D4699469246044600F124080168A6
:10094000880604D5E06921F01001216000E0012053
:10095000A84201DD471B00E00027A1697A1902EBDC
:100960000900081AA0612078C00602D42046FFF7CB
:10097000E6FC002608E0D4E901211AF806009047B9
:10098000206A401C761C20624E45F4DB2078C006AD
:100990000AD52046FFF7D3FC06E0D4E90121302038
:1009A0009047206A401C2062381EA7F10107F4DC42
:1009B00007E0D4E9012118F805009047206A401C9F
:1009C0002062281EA5F10105F3DC2046FFF7CDFCCF
:1009D0002078000602D50220BDE8F0870120FBE761
:1009E00070472DE9FF4F0C461E464FF0FF378BB086
:1009F000D2E90001DDF860800A908A46C1F30A5509
:100A000005B93D46002108464FF00000BAF1000F3D
:100A100000F4400005DA00EB80004FF4400101EAE9
:100A200050004FEA9059B9F1010F00DDB9460A981C
:100A300050EA4A000ED044F61050A5F2FF35454367
:100A40002F14B8F1000F1ED07542291E1EDDC9F10A
:100A500000021CE0B8F1010F4FF0000001D030217E
:100A600003E0F24305E02154401CB042FBDB30467A
:100A70000022002121540B99C1F80880C1E900200F
:100A80000FB0BDE8F08FBD1B6D1CDEE74A4600DAF3
:100A9000694206A800F0F0FB06AB93E8070003AB41
:100AA00083E8070050460A9900F0ADFC8DE8070086
:100AB000A0F500501F3800900398002D0ADD42F287
:100AC0001F014A460844002303A90390684600F02A
:100AD00016FF09E0A0F500504A461F38002303A97D
:100AE0000390684600F020FF8DE807000004000C2A
:100AF00003D04FF0FF30410800E01046B8F1000F7E
:100B000003D00022009215461EE0751E05D4FFF7A3
:100B1000C9FE303262556D1EF9D5B3460122084335
:100B200002D000227F1C04E02078302801D100226E
:100B30007F1E002A099784D01DE0112D07DAFFF7E8
:100B4000B1FE303262556D1C50EA0102F5D1084306
:100B500002D00098C8B10EE00021681E05E0235CB9
:100B6000625C63542254401E491C8142F7DBAB4651
:100B7000A81B401E0990002004F80B000B98099A4E
:100B8000C0F80880C0E9002B7AE711264FF0000872
:100B900057E72DE9F04F88460446D21D22F00701A1
:100BA00091B0D1E90001CDE90A0102F054FA024600
:100BB0000B98C00F01D02D2007E02068810701D5D8
:100BC0002B2002E0202101EAC000032A099001D075
:100BD000072A05DB03464146204600F00DFB0BE1EA
:100BE0002078800601D5E06900E00620B8F1650FA5
:100BF000814606D0B8F1660F18D0B8F1670F70D1F2
:100C000031E00020B9F1110F009001DB112301E068
:100C100009F101030AAA01A90CA8FFF7E2FEDDE928
:100C20000C70002609F10105834647E001204B4680
:100C300000904FF000470AAA01A90CA8FFF7D1FEC7
:100C4000DDE90DB00C995D46002610B909F10100EF
:100C50000D18B9EB050003D4C0F1FF3609F1010509
:100C6000A5EB09002BE0B9F1010F01DA4FF0010902
:100C70000020B9F1110F0090484601DD112300E07A
:100C800003460AAA01A90CA8FFF7ABFEDDE90C7028
:100C90004D4600268346207800070AD4AB4500DA8B
:100CA0005D4601A8012D04DD411911F8011C302910
:100CB00007D04F4502DA17F1040F04DA012082460B
:100CC0000FE06D1EEEE7002F02DCED1B3E4403E05B
:100CD000781CA84200DD7D1CB81B00F1010A4FF012
:100CE00000472078000703D4AA4501DB4FF0FF3A04
:100CF0000021B7F1004F0DF143088DF8431024D0C7
:100D000002202B23002F01DA7F422D230A21021E0D
:100D1000A0F1010000DC5FB197FBF1FC97FBF1F261
:100D200001FB1C7C17460CF1300C08F801CDEEE7F6
:100D3000A8F1010003702188090501D5452100E0D3
:100D40006521A0F1010800F8011C09980FA9A1EB89
:100D50000807FF1D00B10120411901EBEA70A169EC
:100D60003844081A401EA0612078C00602D42046EC
:100D7000FFF7E5FA099828B1D4E901219047206AE4
:100D8000401C20622078C00622D52046FFF7D7FA03
:100D90001EE0002E04DBB34502DD01A8805D00E00B
:100DA0003020D4E901219047206A401C2062761C43
:100DB000AAF101005FEA000A0AD100F019FAC0683E
:100DC0000168405CD4E901219047206A401C206200
:100DD000281EA5F10105DCDC07E0D4E9012118F8A3
:100DE000010B9047206A401C2062381EA7F10107C2
:100DF000F3DC2046FFF7B9FA032011B041E600000A
:100E00002DE9F04F04460D46D21D22F0070089B0AF
:100E1000D0E900974846394602F01DF90246F80F1E
:100E200001D02D2307E02068810701D52B2302E0A4
:100E3000202101EAC0038DF820300BB1012000E031
:100E40000020032A824601D0072A04DB29462046D7
:100E500000F0D2F93FE12078800601D40D2500E0B2
:100E6000E569C7F30A560D2D49DA00214FEA175BF1
:100E700008464FF00000002F00F4400007DA00EBB6
:100E800080004FF4400100EBD07001EA6000811552
:100E9000012901DD4FF0FF3100224FEA850CBCF142
:100EA000180F06D31346ACF118004FF08052C24021
:100EB00003E04FF4801323FA0CF30CF10C0CBCF19B
:100EC000200F04D3ACF1200C09FA0CF001E007FA72
:100ED0000CF000294FF0004801DD18B90FE00ED1E9
:100EE00040450CD319EB02095F4121B9404502D1BD
:100EF0009F4329EA0209BBEB175F00D0761C2088CC
:100F0000000502D57B48784402E07A4878441938D5
:100F100008AA302302F80A30037C0AF10101002EEE
:100F20000AF1020A53546A4602DC4FF0300101E034
:100F30004FF031014FF001088DF8001002D0A6F2F9
:100F4000FF3603E059EA470100D06B4E002D02DC6A
:100F50002178090704D54FF002082E218DF80110E1
:100F6000C44600210BE0C7F303433F01C35C491CA7
:100F70006D1E02F80830052908F1010801DA002D7C
:100F8000F1DC00210CE000EB1973491C1B786D1E8D
:100F9000082902F808304FEA091908F1010801DAB6
:100FA000002DF0DC21688B0602D516E0A8F10108BF
:100FB000E04505DD02EB080313F8013C302BF5D0CA
:100FC000B8F1000F09DD02EB080313F8013C2E2BEA
:100FD00003D1090701D4A8F10108002D05DD3E2148
:100FE00002F808106D1E08F10108407C002E02F87E
:100FF000080008F1010804DA2D20764202F8080002
:1010000002E02B2002F808000A214FF47A70864291
:1010100008F101080BDB96FBF0F3303302F80830DF
:1010200096FBF0F308F1010800FB136601E0642E63
:101030000CDB642096FBF0F3303302F8083096FBAB
:10104000F0F308F1010800FB136601E00A2E06DB4D
:1010500096FBF1F0303002F8080008F1010896FB29
:10106000F1F001FB1060303002F80800A16908F1CE
:10107000010808EB050202EB0A00081AA0612078BB
:10108000C00602D42046FFF75AF9216A08AE01EBE8
:101090000A00206204E0D4E9012116F8010B904710
:1010A000BAF1010AF7D22078C00602D52046FFF730
:1010B00046F96E4609E016F8010B3E280FD0D4E938
:1010C00001219047206A401C2062B8F10108F2D249
:1010D0002046FFF74AF909B00320BDE8F08F206AE7
:1010E0002844206203E0D4E90121302090476D1E9E
:1010F000EBD3F8E7FA22000002FCFFFF10B54369CA
:1011000013B1AFF3008001E0FFF752F9012010BDE9
:10111000127800F124010A7000224A700122EDE7E2
:1011200011684FF0FF32E9E710B5436913B1AFF32F
:10113000008001E0FFF7D4F9012010BD128800F112
:10114000240182840022C2840122EDE711684FF05D
:10115000FF32E9E770B516460C46054600F040F848
:10116000036893F80101012806D0FF2C0FD8185D01
:1011700068B101202C7070BDD3F8070132462146BA
:1011800003F2071303442846BDE8704018474FF0A8
:10119000FF3070BD754600F0EBF8AE4605006946BD
:1011A000534620F00700854618B020B5FFF7A0F899
:1011B000BDE820404FF000064FF000074FF0000858
:1011C0004FF0000B21F00701AC46ACE8C009ACE8D9
:1011D000C009ACE8C009ACE8C0098D467047000002
:1011E00010B500F005F8001D10BD00BF851F000000
:1011F00000487047BC0000202DE9F0411F4604461E
:1012000003260168072A01F4006004DB08B116A573
:1012100005E016A503E008B115A500E015A521F02D
:1012200010002060A069C01EA0610FB1401EA06127
:101230002046FFF784F84FB1D4E9012138469047A2
:10124000206A401C2062C01C206206E0206AFAE787
:10125000D4E9012115F8010B9047761EF8D22046FB
:10126000FFF783F8BDE8F0814E414E006E616E00DD
:10127000494E4600696E66002DE9F04781461646E4
:101280008AB0354878440DC88DE80D00324878445E
:10129000801C03AC0DC884E80D0041F69B30084467
:1012A000372190FBF1F290FBF1F5A5F1800501FBF0
:1012B00012041B3C02D56442012000E00020DFF84C
:1012C00098A080460027FA44AAF1BE0A0EE0E00783
:1012D0000AD03246684607EB470101230AEB810139
:1012E00000F022FB8DE8070064107F1C002CEED17B
:1012F000194F7F44AE3F19E0E80715D007EB041003
:101300000DF1180A90E80E008AE80E00C068F0425D
:1013100001D1981908903246012306A903A800F0CC
:1013200003FB03AB83E807006D10641C002DE3D1C1
:101330004FF0010332466946B8F1000F03A802D00E
:1013400000F0DDFA01E000F0EFFAC9E90001C9F8A8
:1013500008200AB0BDE8F0870C20000010B5044654
:10136000AFF300802046BDE81040FEF7ACBF0000A0
:10137000004870479C0000204FF0013C50F8042BBF
:1013800051F8043B9A4221D1A2EB0C03934313EA98
:10139000CC1317D150F8042B51F8043B9A4215D1C5
:1013A000A2EB0C03934313EACC130BD150F8042B9C
:1013B00051F8043B9A4209D1A2EB0C03934313EA80
:1013C000CC13DBD04FF00000704700BFD01A01BA39
:1013D000B1FA81F101F0180122FA01F0CB40C1F11C
:1013E0002001DBB2C0B2C01A2CFA01F3D11A91432A
:1013F00011EAC311E6D1704701491820ABBEFEE7E0
:101400002600020070475FEA400C08BF91F0000F11
:101410004FEA8C234FEAC12243EA51514FEA1C5054
:1014200018BF00F5F0404FEA300018BF41F000410E
:101430005FEA6C5C00F02980BCF1FF3F08BF40F020
:1014400080407047130C06BF12044FF0100C4FF091
:10145000000C130E04BF12020CF1080C130F04BF92
:1014600012010CF1040C930F04BF92000CF1020C5A
:10147000D30F04BF52000CF1010C11464FF00002D3
:10148000A0F11F00A0EB0C00704711F0004F08BF47
:10149000704731F000413FF4D5AF0B0C06BF090493
:1014A0004FF0100C4FF0000C0B0E04BF09020CF1B2
:1014B000080C0B0F04BF09010CF1040C8B0F04BFC7
:1014C00089000CF1020CCB0F04BF49000CF1010C98
:1014D000CCF12003A0EB0C0022FA03F302FA0CF289
:1014E00041EA030100F10100704720F07F4C80EADF
:1014F000030023F07F47ACEB070303F57C5300F0B8
:10150000004003F1FF032DE980494FEA154B09B470
:101510004FEA144325EA0B4E24EA03480FF204264F
:1015200006EB132749083E785FEA320203FB0667A1
:10153000C7F5000707FB06F64FEA54374FEAD646D1
:1015400006F1020607FB066CCCF1005C4FEA1C4773
:101550002CEA074C07FB06F40CFB06F504EB1546DA
:101560004FEA961634BF00204FF000404FEAD137C3
:1015700006FB07FC4FEA1C4C0CFB0BF7D21B03FBD2
:101580000CF761EB07010CFB0EF7B0EB074072EBB9
:1015900017420CFB08F734BFA2EB0742B2EB07423D
:1015A00061EB17414FEA0C444FEA910706FB07FC39
:1015B0004FEA1C4C0CFB0BF7B0EBC74072EB5732F9
:1015C00003FB0CF734BFA2EBC742B2EBC74261EB9F
:1015D00057310CFB0EF7B0EBC70072EB57720CFBE8
:1015E00008F734BFA2EBC702B2EBC70261EB577139
:1015F000039F4FEA816141EA921104EBCC044FEA68
:10160000D1374FEA826206FB07FC42EA90124FEAAA
:1016100080604FEA1C4C0CFB0BF7D21B03FB0CF752
:1016200061EB07010CFB0EF7B0EB074072EB1742C2
:101630000CFB08F734BFA2EB0742B2EB074261EBA9
:1016400017414FEA8C554FEA910704EB9C2406FBA7
:1016500007FC4FEA1C4C0CFB0BF7B0EBC74072EBDE
:10166000573203FB0CF734BFA2EBC742B2EBC742C1
:1016700061EB57310CFB0EF7B0EBC70072EB577202
:101680000CFB08F734BFA2EBC702B2EBC70261EB59
:10169000577115EB4C254FEA816141EA92114FEAEF
:1016A00082624FEAD13742EA901206FB07FC44F10E
:1016B00000044FEA80604FEA1C4C0CFB0BF7D21B76
:1016C00003FB0CF761EB07010CFB0EF7B0EB0740D7
:1016D00072EB17420CFB08F734BFA2EB0742B2EBE8
:1016E000074261EB174115EB1C154FEA813141EAC6
:1016F00092414FEA823242EA90424FEA80304FEA0A
:101700000C7644F1000448EA03434EEA0B484FF0DC
:10171000000EB2EB080C71EB030724BF624639469A
:101720004EEB0E0E4FF0000B0018524149414BEBAF
:101730000B0BB2EB080C71EB03077BF1000B24BF22
:10174000624639464EEB0E0E4FF0000B0018524128
:1017500049414BEB0B0BB2EB080C71EB03077BF130
:10176000000B24BF624639464EEB0E0E51EA0207CB
:1017700018BF46F0010616EB0E7655F1000254F143
:10178000000103D5BDE88901BDE80088BDE88901F5
:10179000BDE80048B619524141EB0101A3F1010334
:1017A000704780807F7E7D7C7B7A797877767675CE
:1017B0007473727171706F6E6E6D6C6C6B6A6A6946
:1017C0006868676666656464636362616160605FE0
:1017D0005F5E5E5D5D5C5C5B5B5A5A595958585759
:1017E00057565655555554545353525252515150C1
:1017F00050504F4F4F4E4E4D4D4D4C4C4C4B4B4B14
:101800004A4A4A4949494848484747474746464659
:101810004545454444444443434343424242424194
:101820004141002B9C4630D477002BD01CB54FEAA9
:10183000370703B44FF010004FF01001BAF1000F5A
:1018400006D0BCF1000FDCBF40F0080040F00801FA
:101850004FF000000FBCBDE810400BF1010BBBF1D5
:10186000010F08BF5FEA170722BF12F1010211F151
:1018700001014FF0004143F1000300F0004043EA52
:1018800000007047F9D35708D0E746EA064613F13F
:10189000400F4FEA16461FDD13F1200FDFBF16433E
:1018A0000A46002120335B42BED0C3F1200746EA3E
:1018B000064602FA07F74FEA164646EA0706C3F15C
:1018C000200722FA03F201FA07F721FA03F14FF099
:1018D000000342EA0702A7E746EA020646EA06468E
:1018E0004FEA164646EA0106BCBF46EA0646360CF3
:1018F0004FF000034FF000024FF0000194E72DE994
:10190000804C9A46934670B491E8380007C831EA93
:10191000400C48BF34EA430C03D5FFF7E6FDFFF760
:1019200080FFF0BCBDE8008C2DE9804C9A469346C0
:1019300070B491E8380007C810F0804F08BF13F06A
:10194000804F03D100F005F8FFF76BFFF0BCBDE856
:10195000008C20F07F4780EA030023F07F4C07EBE8
:101960000C03A3F57C5300F00040A3F1FE0392F0BA
:10197000000F00F0B38095F0000F00F077802DE9A4
:1019800001494FEA11404FEA144621EA004800FBA2
:1019900006FC24EA064708FB06F607FB08F800FBEE
:1019A00007F718EB06484CEB164C4FEA124B18EBB6
:1019B00007484FEA15464CEB174022EA0B4E0BFB4B
:1019C00006FC25EA06470EFB06F607FB0EFE0BFBA0
:1019D00007F71EEB064E4CEB164C4FF000061EEBC5
:1019E000074E4CEB174B18EB0B0840F1000018EBBF
:1019F0000E0B58EB000840F100008F1A4FF0000169
:101A00003CBFC943661B14BFB5EB040C00213CBFAF
:101A1000C943F61B4FEA17444EEA8E0E27EA0445E7
:101A20004FEA1C4704FB07622CEA074C05FB07F74B
:101A30000CFB05F604FB0CFC16EB074642EB1742C9
:101A400016EB0C4642EB1C421BEB060658EB02025F
:101A5000414146EA9E0601D5BDE80189B6195241C9
:101A600041EB0101A3F10103BDE801894FEA1445EF
:101A70004FEA114724EA054621EA074C05FB07F423
:101A800006FB07F70CFB06F105FB0CFC11EB07410D
:101A900044EB17444FEA124711EB0C4144EB1C4452
:101AA00022EA074C05FB07F206FB07F70CFB06F6DC
:101AB00005FB0CFC16EB074642EB174216EB0C46F7
:101AC00042EB1C456A1854F1000148BF7047B61933
:101AD000524141EB0101A3F10103704795F0000F62
:101AE00037D04FEA11424FEA144721EA024624EA6E
:101AF000074C02FB07F106FB07F70CFB06F402FBA1
:101B00000CFC14EB074441EB17414FEA154714EB6B
:101B10000C4441EB1C4125EA074C02FB07F506FB90
:101B200007F70CFB06F602FB0CFC16EB074645EB31
:101B3000174516EB0C4645EB1C42121951F10001FA
:101B400048BF7047B619524141EB0101A3F10103AF
:101B500070474FEA14454FEA114724EA054621EA47
:101B6000074C05FB07F106FB07F70CFB06F24FF0ED
:101B7000000605FB0CFC12EB074241EB174112EB90
:101B80000C4251EB1C4148BF7047921841EB0101D8
:101B9000A3F10103704700BFFEE77047F0B50A46A6
:101BA00000210023002400BF3DE0012505FA01F3D8
:101BB000156805EA03049C4234D105684F000326EA
:101BC000BE40B543056015794E00B5400668354303
:101BD00005601579012D02D01579022D16D1856881
:101BE0004F000326BE40B543856055794E00B54091
:101BF000866835438560456801268E40B54345605B
:101C0000456896798E40B6B235434560C5684F0049
:101C10000326BE40B543C560D5794E00B540C668C1
:101C20003543C560491C1029BFD3F0BDF0B5002372
:101C300000244D07ED0E02FA05F3CE1000F1200549
:101C400055F826504E07F70E0F26BE40B543CF106D
:101C500000F1200646F82750CE1000F1200555F877
:101C6000265045EA0304CE1000F1200545F8264031
:101C7000F0BD0AB1018300E04183704700BFFEE779
:101C800008B50020009000F091F800F05FF900F036
:101C900081FA00F055FB00F04BFC00F09BF800F0DF
:101CA00095F900F08FFA00F04DFB00F059FC08BDEB
:101CB00010B500F089FF02A001F010F910BD00007E
:101CC0004D342050776D20496E697469616C697A72
:101CD000656421210A00000010B502A001F0FEF8A1
:101CE00010BD00004D342052636320496E69746951
:101CF000616C697A656421210A00000000B587B033
:101D00000121C80400F074FD0121042000F060FDF1
:101D100002208DF818004FF44060059000208DF8E7
:101D20001A0001208DF81B0002208DF8190005A96A
:101D30001448FFF733FF08220A211248FFF776FF05
:101D400008220B210F48FFF771FF4FF4E13001909B
:101D50000020ADF810000C20ADF80E000020ADF80A
:101D60000C00ADF80A00ADF8080001A9064801F022
:101D700005F90121044801F0E8F804A001F0AEF8EB
:101D800007B000BD00080240004C00404D34205513
:101D900061727420496E697469616C697A65642145
:101DA000210A000000BFFEE77047000010B50022C6
:101DB00008210748FFF73AFF072209210448FFF7E7
:101DC00035FF07220A210248FFF730FF10BD00004F
:101DD0000000024010B5A0B000240121084600F028
:101DE000F7FC0120009003208DF8040000208DF8FE
:101DF00005008DF807008DF80600022002900321EF
:101E00008DF80C1000218DF80D108DF80F108DF845
:101E10000E100420049003218DF8141000218DF879
:101E200015108DF817108DF8161008200690032154
:101E30008DF81C1000218DF81D108DF81F108DF8E5
:101E40001E101020089003218DF8241000218DF819
:101E500025108DF827108DF8261020200A900321D8
:101E60008DF82C1000218DF82D108DF82F108DF885
:101E70002E1040200C9003218DF8341000218DF895
:101E800035108DF837108DF8361080200E90032114
:101E90008DF83C1000218DF83D108DF83F108DF825
:101EA0003E104000109002218DF8441000218DF862
:101EB000451002218DF8471000218DF84610400092
:101EC000129002218DF84C1000218DF84D10022146
:101ED0008DF84F1000218DF84E1040001490022113
:101EE0008DF8541000218DF8551002218DF85710EF
:101EF00000218DF856104000169001218DF85C10DD
:101F000000218DF85D1001218DF85F1000218DF802
:101F10005E104000189001218DF8641000218DF8AA
:101F2000651001218DF8671000218DF8661000BF43
:101F300006E0684600EBC4010348FFF72FFE641C6F
:101F4000102CF6DB20B010BD0000024010B50222BC
:101F500004211D48FFF76AFE022205211A48FFF7F7
:101F600065FE022206211848FFF760FE02220721C3
:101F70001548FFF75BFE042208211348FFF756FEC1
:101F8000042209211048FFF751FE04220A210E48BD
:101F9000FFF74CFE04220B210B48FFF747FE0522FA
:101FA0000C210948FFF742FE05220D210648FFF7E4
:101FB0003DFE05220E210448FFF738FE05220F21C1
:101FC0000148FFF733FE10BD0004024010B5A0B079
:101FD00000240121022000F0FBFB012000908DF87D
:101FE000040000208DF8050002208DF80700002075
:101FF0008DF806000220029003218DF80C100021BC
:102000008DF80D108DF80F108DF80E10042004902F
:1020100003218DF8141000218DF815108DF817107C
:102020008DF816101020089002218DF8241003213D
:102030008DF8251002218DF8271000218DF826102B
:1020400020200A9002218DF82C1000218DF82D10EF
:1020500002218DF82F1000218DF82E1040200C90B9
:1020600002218DF8341000218DF8351002218DF8F1
:10207000371000218DF8361080200E9002218DF847
:102080003C1000218DF83D1002218DF83F100021F9
:102090008DF83E104000109002218DF84410002170
:1020A0008DF8451002218DF8471000218DF846105B
:1020B0004000129002218DF84C1000218DF84D1037
:1020C00002218DF84F1000218DF84E104000149021
:1020D00002218DF8541000218DF8551002218DF841
:1020E000571000218DF856104000169002218DF8EF
:1020F0005C1000218DF85D1002218DF85F10002129
:102100008DF85E104000189002218DF864100021B7
:102110008DF8651002218DF8671000218DF866108A
:1021200040001A9002218DF86C1000218DF86D107E
:1021300002218DF86F1000218DF86E1040001C9068
:1021400002218DF8741000218DF8751002218DF890
:10215000771000218DF8761040001E9002218DF836
:102160007C1000218DF87D1002218DF87F10002158
:102170008DF87E1000BF06E0684600EBC4010448FD
:10218000FFF70CFD641C102CF6DB20B010BD000026
:102190000004024010B5032206210948FFF746FD5E
:1021A000032207210648FFF741FD08220A210448BF
:1021B000FFF73CFD08220B210148FFF737FD10BD5A
:1021C0000008024010B5A0B000240121042000F056
:1021D000FFFA0120009003208DF8040000208DF804
:1021E00005008DF807008DF80600022002900321FB
:1021F0008DF80C1000218DF80D108DF80F108DF852
:102200000E100420049003218DF8141000218DF885
:1022100015108DF817108DF8161008200690032160
:102220008DF81C1000218DF81D108DF81F108DF8F1
:102230001E101020089003218DF8241000218DF825
:1022400025108DF827108DF8261020200A900321E4
:102250008DF82C1000218DF82D108DF82F108DF891
:102260002E1040200C9002218DF8341000218DF8A2
:10227000351002218DF8371000218DF8361080209E
:102280000E9002218DF83C1000218DF83D100221A6
:102290008DF83F1000218DF83E1040001090012174
:1022A0008DF8441000218DF8451002218DF847105B
:1022B00000218DF846108000149002218DF85410F2
:1022C0008DF8551001218DF8571000218DF856100A
:1022D0004000169002218DF85C108DF85D100121F0
:1022E0008DF85F1000218DF85E10400018900121DC
:1022F0008DF8641000218DF8651002218DF86710AB
:1023000000218DF8661040001A9001218DF86C10A4
:1023100000218DF86D1002218DF86F1000218DF8CD
:102320006E1000BF06E0684600EBC4010348FFF7EB
:1023300035FC641C102CF6DB20B010BD00080240F8
:102340007047000010B5A0B000240121082000F063
:102350003FFA012000908DF8040000208DF8050060
:1023600002208DF8070000208DF806000220029060
:1023700001218DF80C1000218DF80D1002218DF82F
:102380000F1000218DF80E100420049001218DF80B
:10239000141000218DF8151002218DF8171000215E
:1023A0008DF816100820069001218DF81C100021D0
:1023B0008DF81D1002218DF81F1000218DF81E10C0
:1023C0001020089001218DF8241000218DF825108F
:1023D00002218DF8271000218DF8261020200A9068
:1023E00001218DF82C1000218DF82D1002218DF87F
:1023F0002F1000218DF82E1040200C9001218DF817
:10240000341000218DF8351002218DF8371000218D
:102410008DF8361080200E9001218DF83C1000219F
:102420008DF83D1002218DF83F1000218DF83E10EF
:102430004000109001218DF8441000218DF84510C6
:1024400002218DF8471000218DF8461040001290AF
:1024500001218DF84C1000218DF84D1002218DF8CE
:102460004F1000218DF84E104000149001218DF87E
:10247000541000218DF8551002218DF857100021BD
:102480008DF856104000169001218DF85C10002147
:102490008DF85D1002218DF85F1000218DF85E101F
:1024A0004000189001218DF8641000218DF865100E
:1024B00002218DF8671000218DF8661040001A90F7
:1024C00001218DF86C1000218DF86D1002218DF81E
:1024D0006F1000218DF86E1040001C9001218DF8C6
:1024E000741000218DF8751002218DF877100021ED
:1024F0008DF8761040001E9001218DF87C1000218F
:102500008DF87D1002218DF87F1000218DF87E104E
:1025100000BF06E0684600EBC4010448FFF73EFB3D
:10252000641C102CF6DB20B010BD0000000C024033
:1025300010B5032205210948FFF778FB0322062185
:102540000648FFF773FB012209210448FFF76EFBE1
:1025500001220B210148FFF769FB10BD001002406A
:1025600010B5A0B000240121102000F031F90120A5
:1025700000908DF8040000208DF8050002208DF8F1
:10258000070000208DF806000220029001218DF83E
:102590000C1000218DF80D1002218DF80F10002174
:1025A0008DF80E101020089001218DF824100021C4
:1025B0008DF8251002218DF8271000218DF82610A6
:1025C00020200A9002218DF82C1000218DF82D106A
:1025D00002218DF82F1000218DF82E1040200C9034
:1025E00002218DF8341000218DF8351002218DF86C
:1025F000371000218DF8361080200E9001218DF8C3
:102600003C1000218DF83D1002218DF83F10002173
:102610008DF83E104000109001218DF844100021EB
:102620008DF8451002218DF8471000218DF84610D5
:102630004000129002218DF84C1000218DF84D10B1
:1026400002218DF84F1000218DF84E10400014909B
:1026500001218DF8541000218DF8551002218DF8BC
:10266000571000218DF856104000169002218DF869
:102670005C1000218DF85D1002218DF85F100021A3
:102680008DF85E104000189001218DF86410002133
:102690008DF8651002218DF8671000218DF8661005
:1026A00040001A9001218DF86C1000218DF86D10FA
:1026B00002218DF86F1000218DF86E1040001C90E3
:1026C00001218DF8741000218DF8751002218DF80C
:1026D000771000218DF8761040001E9001218DF8B2
:1026E0007C1000218DF87D1002218DF87F100021D3
:1026F0008DF87E1000BF06E0684600EBC401044878
:10270000FFF74CFA641C102CF6DB20B010BD000063
:10271000001002407047000010B506A000F0DEFB7C
:1027200005A000F0DBFB11A000F0D8FB1BA000F01F
:10273000D5FB10BD0A0A00003D3D3D3D3D3D3D3D00
:1027400020202053544D33324634303756475436C8
:10275000204D6F6E69746F722056312E302020200C
:102760003D3D3D3D3D3D3D3D0A0000003D3D3D3D83
:102770003D3D3D3D2020206279204C6565204A6921
:102780006E20486F204D617A6520323372642020BC
:10279000203D3D3D3D3D3D3D0A0000003D3D3D3D70
:1027A0003D202068747470733A2F2F626C6F672E0F
:1027B0006E617665722E636F6D2F7A617A7A303929
:1027C000303720203D3D3D3D3D3D0A0A00000000E0
:1027D00029B1064A12680243044B1A6004E0034A16
:1027E00012688243014B1A60704700003038024083
:1027F00029B1064A12680243044B1A6004E0034AF6
:1028000012688243014B1A60704700004038024052
:10281000F0B5002100220024022500260223324FB9
:102820003F6807F00C0121B1042905D0082937D1F0
:1028300005E02E4F076036E02D4F076033E02A4F4A
:102840003F1F3F68C7F38056274F3F1F3F6807F081
:102850003F036EB1264FB7FBF3F7DFF88CC0ACF146
:10286000040CDCF800C0CCF3881C07FB0CF40CE073
:102870001E4FB7FBF3F7DFF870C0ACF1040CDCF8C7
:1028800000C0CCF3881C07FB0CF4174F3F1F3F68B8
:10289000C7F301477F1C7D00B4FBF5F7076002E03A
:1028A000124F076000BF00BF0F4F3F6807F0F001F5
:1028B0000909104F7A5C0768D74047600A4F3F68A4
:1028C00007F4E051890A0B4F7A5C4768D74087606C
:1028D000054F3F6807F46041490B064F7A5C476833
:1028E000D740C760F0BD0000083802400024F40063
:1028F00000127A0009000020704700000CB500208B
:10290000019000903448006840F4803032490860FB
:1029100000BF3148006800F4003000900198401C6E
:102920000190009818B90198B0F5A04FF1D12A484C
:10293000006800F4003010B10120009001E0002098
:1029400000900098012846D123484030006840F0AC
:1029500080502149403108602048006840F44040E0
:102960001E4908601C48083000681B49083108608F
:102970000846006840F4004008600846006840F4DB
:10298000A05008601648091F0860081F006840F042
:102990008070091F086000BF0F48006800F00070D9
:1029A0000028F9D040F205700E4908600A48083046
:1029B000006820F0030008490831086008460068F4
:1029C00040F00200086000BF03480830006800F0D3
:1029D0000C000828F8D10CBD0038024000700040FF
:1029E000042A4007003C024010B500F06BFA10BD0D
:1029F00010B51548006840F470001349086013488A
:102A0000006840F001001149086000200F490831BA
:102A100008600E4800680E4908400C4908600D48DF
:102A2000091D0860081F006820F48020091F086045
:102A3000002006490C310860FFF760FF4FF000608E
:102A400001498039086010BD88ED00E0003802407F
:102A5000FFFFF6FE103000241FB56846FFF7D8FED2
:102A600010490098B0FBF1F421460FA000F036FAAF
:102A70000C490198B0FBF1F4214611A000F02EFAA8
:102A800008490398B0FBF1F4214613A000F026FAA0
:102A900004490298B0FBF1F4214616A000F01EFA9A
:102AA0001FBD000040420F00535953434C4B5F463B
:102AB00072657175656E6379203A2025640A00009D
:102AC00048434C4B5F4672657175656E6379203A79
:102AD0002025640A0000000050434C4B322841502E
:102AE0004232295F4672657175656E6379203A20BE
:102AF00025640A0050434C4B312841504231295F34
:102B00004672657175656E6379203A2025640A0006
:102B100010B5FFF7B5F8FFF7F1F8FFF7DDF8FFF7AD
:102B2000C7F810BD10B50121044800F030F918B104
:102B30000121024800F01CF910BD000000400140D6
:102B400010B50121044800F022F918B10121024812
:102B500000F00EF910BD00000000014010B5012189
:102B6000044800F014F918B10121024800F000F9FE
:102B700010BD00000048014010B50121044800F0DC
:102B800006F918B10121024800F0F2F810BD00006A
:102B90000044014010B50121880700F0F8F818B191
:102BA0000121880700F0E4F810BD000010B50121F4
:102BB000044800F0ECF818B10121024800F0D8F800
:102BC00010BD00000004004000B58BB001210220C0
:102BD000FFF7FEFD022204212548FFF727F8022215
:102BE00005212348FFF722F83020099002208DF8B4
:102BF000280003208DF8290000208DF82A000120EC
:102C00008DF82B0009A91A48FEF7C8FF0121022000
:102C1000FFF7EEFD40F2E73007902920ADF81800ED
:102C20000020ADF82000ADF81A0006A9114800F008
:102C300007F96020ADF804000120ADF806004FF45C
:102C4000FA7003900020ADF8100001A9094800F0C7
:102C5000AFF80821074800F0E9F80121054800F025
:102C60007BF80121034800F086F80BB000BD00009E
:102C7000000402400004004010B50121044800F0A7
:102C800086F818B10121024800F072F810BD00006A
:102C90000008004010B50121054800F078F830B177
:102CA0000121034800F064F801200249087010BDBA
:102CB000000C00400800002010B50121044800F07D
:102CC00066F818B10121024800F052F810BD00006A
:102CD0000010004010B50121044800F058F818B168
:102CE0000121024800F044F810BD0000001400402B
:102CF00010B50121044800F04AF818B10121034839
:102D000000F036F810BD000000000140001800403F
:102D100010B50121044800F03AF818B10121024829
:102D200000F026F810BD00000004014010B501219C
:102D3000014800F01DF810BD0020004010B5012131
:102D4000044800F024F818B10121024800F010F8FE
:102D500010BD0000001C004021B1028842F080023A
:102D6000028004E002884FF67F731A4002807047A9
:102D7000CA430282704721B1028842F001020280F8
:102D800004E002884FF6FE731A400280704730B5A7
:102D90000246002000230024158A05EA01039589D4
:102DA00005EA010413B10CB1012000E0002030BDA0
:102DB00070B5002400220023058C4FF6FE763540C6
:102DC0000584028C8388048B4FF68F752C40B51ECA
:102DD0002C400D882C43751E2A408D892A434D882E
:102DE0002A43104DA84202D00F4DA84213D14FF6EE
:102DF000F7752A40CD892A434FF6FB752A408D8806
:102E00002A434FF6FF652B404FF6FF552B400D8AA6
:102E10002B434D8A2B43838004838D684563028452
:102E200070BD000000000140000401400A4600217E
:102E3000018B4FF6F773194011430183704700006F
:102E400000220288184B98420ED0184B98420BD0A3
:102E5000B0F1804F08D0164B984205D0154B9842E0
:102E600002D0154B984204D14FF68F731A404B880D
:102E70001A43124B984207D0114B984204D04FF698
:102E8000FF431A400B891A4302804B68C3620B88C8
:102E90000385054B984202D0044B984201D18B7AAE
:102EA0000386012383827047000001400004014033
:102EB0000004004000080040000C004000100040EA
:102EC000001400400448006820B103480068401E18
:102ED0000149086070470000040000200FB408B5E5
:102EE00003A800900648009A0299FDF713FA002003
:102EF0000090034800F018F801B05DF814FB0000E2
:102F00001C00002010B5044600BF8021054800F0D9
:102F100028F80028F9D0C4F308000249091D0880E8
:102F200010BD0000004C004010B5044609E02078B8
:102F30000A2802D10D20FFF7E5FF14F8010BFFF777
:102F4000E1FF20780028F2D110BD21B1828942F43E
:102F50000052828104E082894DF6FF731A4082811B
:102F6000704702460020B1F5007F00D100BF1388F2
:102F70000B400BB1012000E0002070472DE9FF4716
:102F800005460E460024A14600BFA046B08900B108
:102F900000BF2C8A24F44054F08804432C82AC896E
:102FA00041F20C608443B088318908437189084339
:102FB0000443AC81AC8A24F44074B0890443AC82ED
:102FC0006846FFF725FC2048854202D01F4885420D
:102FD00002D1DDF80C9001E0DDF80890A88900F43A
:102FE000004040B109EBC90000EB0910316849000D
:102FF000B0FBF1F707E009EBC90000EB09103168FD
:103000008900B0FBF1F76420B7FBF0F00401200960
:10301000642101FB1078A88900F4004040B13220FF
:1030200000EBC800B0FBF1F000F00700044308E03B
:10303000322000EB08106421B0FBF1F000F00F002B
:1030400004432C81BDE8FF870010014000140140BB
:1030500000BFFEE7704703B401984100009850EAB2
:10306000C12018BF04204A0D18BF40F0010040F2F3
:10307000FF72B2EB515F08BF40F00200012808BFA9
:10308000052002B0704730380A2801D2012070476D
:10309000002070471CB5FFF73BFDFFF7DBFF00206A
:1030A00001900090FFF738FBFFF7D6FC41E00122CA
:1030B0004FF4C0511F48FEF7DCFD01220C211E48D1
:1030C000FEF7D7FD0020019005E00098401C00901D
:1030D0000198401C0190194901988842F5DB0020B5
:1030E000009000224FF4C0511248FEF7C2FD0022AA
:1030F0000C211148FEF7BDFD0020019005E000986D
:10310000401C00900198401C01900C490198884295
:10311000F5DB00200090019005E00098401C009035
:103120000198401C0190064901988842F5DB002077
:103130000090BCE700000240000C0240809698001E
:1031400040420F0010B500290AD00878002807D0A7
:1031500005487844FEF710F9002801D0002010BD82
:103160000248784410BD00007A010000720100009E
:1031700010B500290AD00878002807D005487844FF
:10318000FEF7FAF8002801D0002010BD024878446C
:1031900010BD00006A010000620100004FF04070A5
:1031A000E1EE100A7047FDF7F4BCFDF729BE000000
:1031B0000000000000000000303132333435363773
:1031C000383941424344454640305800303132336B
:1031D000343536373839616263646566403078006B
:1031E00004000008000000000000000200010000D0
:1031F00010303132333435363738396162636465C3
:1032000066787000303132333435363738394142E0
:10321000434445465850000002400000000000A012
:103220000000000005400000000000C80000000091
:103230000C4000000000409C00000000194000000D
:103240000020BCBE0000000034400000BFC91B8E3F
:1032500000000004B5400000504BCFD06607E2CF1D
:10326000010000006C4100003E8251AADFEEA7344D
:1032700001000000D9420000DCB5A0E23A301F97FF
:10328000FFFFFFFFB4450000FD25A0C8E9A3C14F23
:10329000FFFFFFFFFF3F0000000000800000000074
:1032A000FF3F00000000008000000000F83300082D
:1032B000000000201C000000C401000814340008B5
:1032C0001C000020E4060000E00100081C000000D3
:1032D00043000000F8FFFFFF0C0000000E0000009C
:1032E0000F0000002E00000010010000430000004D
:1032F000F8FFFFFF00404040404040404040414117
:1033000041414140404040404040404040404040BA
:103310004040404040050202020202020202020254
:103320000202020202202020202020202020200251
:1033300002020202020290909090909010101010E1
:10334000101010101010101010101010101010107D
:103350000202020202028888888888880808080811
:1033600008080808080808080808080808080808DD
:103370000202020240000000000000000000000005
:10338000000000000000000000000000000000003D
:10339000000000000000000000000000000000002D
:1033A000000000000000000000000000000000001D
:1033B000000000000000000000000000000000000D
:1033C00000000000000000000000000000000000FD
:1033D00000000000000000000000000000000000ED
:1033E00000000000000000000000000000000000DD
:1033F00000000000000000000000000000000000CD
:103400000000000000010203040102030406070893
:0434100009000000AF
:040000050800018965
:00000001FF
